:020000040800F2
:10000000E00F002091010008ED080008F907000842
:10001000E9080008190500089F1900080000000001
:10002000000000000000000000000000F1130008C4
:100030001D05000800000000990B0008511500087C
:10004000AB010008AB010008AB010008AB010008E0
:10005000AB010008AB010008AB010008AB010008D0
:10006000AB010008AB010008AB010008AB010008C0
:10007000AB010008AB010008AB010008AB010008B0
:10008000AB010008AB010008AB010008AB010008A0
:10009000AB010008AB010008AB010008AB01000890
:1000A000AB010008AB010008AB010008AB01000880
:1000B000AB010008B5150008AB010008AB01000852
:1000C000AB010008AB010008AB010008AB01000860
:1000D000AB0100087D170008AB010008AB01000868
:1000E000AB010008AB010008AB01000800F002F80A
:1000F00000F03FF80AA090E8000C82448344AAF183
:100100000107DA4501D100F034F8AFF2090EBAE880
:100110000F0013F0010F18BFFB1A43F0010318473B
:10012000C42F0000E42F0000103A24BF78C878C123
:10013000FAD8520724BF30C830C144BF04680C60ED
:10014000704700000023002400250026103A28BF35
:1001500078C1FBD8520728BF30C148BF0B60704739
:10016000642900F07780002070471FB51FBD10B5CF
:1001700010BD00F09FF91146FFF7F7FF01F078FF7F
:1001800000F0BDF903B4FFF7F2FF03BC01F0F0FE8D
:100190000948804709480047FEE7FEE7FEE7FEE71B
:1001A000FEE7FEE7FEE7FEE7FEE7FEE70448054957
:1001B000054A064B7047000055150008ED00000881
:1001C000E0090020E00F0020E00B0020E00B002001
:1001D000704700000FB4044910B503AA029800F05C
:1001E00013F910BC5DF814FB440000202DE9F04128
:1001F0000E460446002020622046E168884730B35E
:10020000252805D0D4E901219047206A401CF2E757
:10021000E168204600278847050018D0A5F1410075
:10022000192802D820354FF4006732462946204667
:100230002760FFF795FF40B1012804D0F61D26F096
:1002400007060836D8E7361DD6E72846DAE7206ADB
:10025000BDE8F0812DE9F0410646002410687529BB
:10026000314616A510D0AFF30080002802DA4042D4
:1002700013A507E031688A0701D512A502E04907F6
:1002800004D511A5012401E0AFF3008000210A226A
:1002900006F1240709E0B0FBF2FCB0FBF2F302FB2D
:1002A0001C00303078541846491C0028F3D12346EE
:1002B0002A463046BDE8F04100F04DB8000000008D
:1002C0002D0000002B0000002000000010B5431C92
:1002D00002E010F8011B71B18107FAD14FF0013231
:1002E00002C88C1A8C4314EAC211F9D0C01A0A064B
:1002F00003D0C01E10BDC01A10BD0A0401D0801E5C
:1003000010BD0902FCD0401E10BD4FF000020429B0
:10031000C0F0128010F0030C00F08A80CCF1040CC5
:10032000BCF1020F18BF00F8012BA8BF20F8022B68
:10033000A1EB0C0100F07CB85FEAC17C24BF00F89F
:10034000012B00F8012B48BF00F8012B70477047C4
:100350007047704770472DE9F0470D469946924621
:10036000044600F124080168880604D5E06921F0FC
:100370001001216000E00120A84201DD471B00E0E0
:100380000027A1697A1902EB0900081AA0612078F8
:10039000C00602D42046AFF30080002608E0D4E96E
:1003A00001211AF806009047206A401C761C206242
:1003B0004E45F4DB2078C0060AD52046AFF3008016
:1003C00006E0D4E9012130209047206A401C2062D9
:1003D000381EA7F10107F4DC07E0D4E9012118F881
:1003E00005009047206A401C2062281EA5F10105E7
:1003F000F3DC2046AFF300802078000602D502200F
:10040000BDE8F0870120FBE7074B70B50D467B4444
:1004100000F039F80446284600F048F810B14FF0D3
:10042000FF3070BD204670BD431C00004FF000023D
:1004300000B5134694469646203922BFA0E80C50DA
:10044000A0E80C50B1F12001BFF4F7AF090728BFB5
:10045000A0E80C5048BF0CC05DF804EB890028BF31
:1004600040F8042B08BF704748BF20F8022B11F05A
:10047000804F18BF00F8012B7047000001694A1C2B
:1004800002610878704700B58FB0CDE901310021D5
:10049000059105497944CDE9031011466846FFF7F7
:1004A000A5FE0FB000BD0000E5FFFFFF007B00F0E0
:1004B00080007047754600F02BF8AE46050069468F
:1004C000534620F00700854618B020B5FFF76EFEB2
:1004D000BDE820404FF000064FF000074FF0000845
:1004E0004FF0000B21F00701AC46ACE8C009ACE8C6
:1004F000C009ACE8C009ACE8C0098D46704710B52A
:100500000446AFF300802046BDE81040FFF73ABE36
:10051000004870478009002000BFFEE770470000D8
:100520000B4840790A4A9279904201D100207047E5
:1005300007484079064A115C10464079401CC0B219
:100540005071052801DB002050710846EFE70000DC
:100550006800002004480021016001710020024968
:100560004871887170470000680000202DE9F04153
:10057000024600250026002000230024002791F8D1
:1005800003C00CF00F0591F803C00CF0100CBCF187
:10059000000F03D091F802C04CEA050591F800C0A5
:1005A000BCF1000F31D0146800202BE04FF0010C9B
:1005B0000CFA00F3B1F800C00CEA03069E4220D109
:1005C00083004FF00F0C0CFA03F7BC4305FA03FC51
:1005D0004CEA040491F803C0BCF1280F06D14FF097
:1005E000010C0CFA00FCC2F814C00AE091F803C038
:1005F000BCF1480F05D14FF0010C0CFA00FCC2F819
:1006000010C0401C0828D1D31460B1F800C0BCF160
:10061000FF0F34DD546800202EE000F1080C4FF08D
:10062000010808FA0CF3B1F800C00CEA03069E4278
:1006300021D183004FF00F0C0CFA03F7BC4305FAED
:1006400003FC4CEA040491F803C0BCF1280F05D167
:1006500000F1080C08FA0CF8C2F8148091F803C0F5
:10066000BCF1480F07D100F1080C4FF0010808FA5F
:100670000CF8C2F81080401C0828CED35460BDE8A6
:10068000F0810000F0B50A46002300240021002577
:1006900000F00046B6F1004F02D11D4EF16901E0B5
:1006A0001B4E7168C0F3034583B200F44016B6F5E3
:1006B000401F08D121F07061154E766826F07066F3
:1006C000134F7E6012E000F48016B6F5801F06D14D
:1006D000032606FA05F4A14341F0706106E0460DD9
:1006E000360103FA06F6B14341F0706122B1460DBE
:1006F000360103FA06F6314300F00046B6F1004F2A
:1007000002D1034EF16101E0014E7160F0BD0000C5
:1007100000000140416170470161704710B500F071
:1007200031F80149086010BD2800002070B500F0C4
:1007300029F810490860084600680F49096888428E
:1007400017D90C4800680D490860084600680A4936
:100750000968401A094908600846006802F0A8FACA
:100760000546074902F0C6F9044602F085FA034936
:10077000086070BD24000020280000202C0000200C
:100780000080EE4370B501201949086001F03CFC7F
:1007900000201849C1F88001002400BF14480068F7
:1007A0000028FBD1002513E0012011497C310860AD
:1007B000640001F029FC00200E49C1F880010C48BA
:1007C000006800B1641C012001F01EFC681CC5B269
:1007D000182DE9DB012006497C31086084F400040F
:1007E00001F012FC00200349C1F88001204670BDD1
:1007F000048121420080214200BFFEE710B5402164
:100800000A48FFF789FF80210848FFF785FF00F0BD
:1008100037F880210548FFF77DFF00F031F84021CF
:100820000248FFF777FF00F02BF810BD000C0140E5
:1008300010B540210648FFF76FFF80210448FFF7FD
:1008400069FF00F01DF880210148FFF765FF10BD2A
:10085000000C014010B580210848FFF75DFF00F053
:100860000FF840210548FFF757FF00F009F8402135
:100870000248FFF74FFF00F003F810BD000C0140E5
:10088000032000BF011EA0F10102D0B2FAD17047CF
:1008900008B50121082000F091F90120ADF8000011
:1008A00010208DF8030003208DF8020069460748E8
:1008B000FFF75CFE0220ADF8000048208DF8030031
:1008C00069460248FFF752FE08BD0000000C0140D7
:1008D00010B50121084600F071F901210148FFF728
:1008E000D1FE10BD0002300000BFFEE770470000DF
:1008F00070B5002100230F22C47804B3154C24687E
:1009000004F4E064C4F5E064210AC1F10403CA40C0
:10091000447804FA03F184781440214309010E4C11
:100920000678A155047804F01F050124AC40057831
:100930006D11AD0005F1E025C5F8004109E004782E
:1009400004F01F050124AC40044D0678761145F8EB
:10095000264070BD0CED00E000E400E080E100E026
:1009600002490143024A1160704700000000FA0585
:100970000CED00E070B500240CE0002506E000203E
:10098000074901EBC5010855681CC5B2802DF6DB8F
:10099000601CC4B2082CF0DB00F0AEF870BD0000A3
:1009A0009C00002070B506460024002500BF19E019
:1009B00004F1B001C8B2002100F0D2F800210846CD
:1009C00000F0CEF80021102000F0CAF8002506E063
:1009D00006EBC501085D012100F0C2F86D1C802DF9
:1009E000F6DB641C082CE3DB70BD000008B50121B8
:1009F000082000F0E3F8C020ADF8000014208DF8C6
:100A0000030003208DF8020069463A48FFF7AEFD67
:100A1000C0213848FFF780FE0021AE2000F0A0F88A
:100A20000021022000F09CF80021102000F098F82E
:100A30000021402000F094F80021B02000F090F850
:100A40000021812000F08CF80021FF2000F088F8C0
:100A50000021A12000F084F80021A62000F080F8F9
:100A60000021A82000F07CF800213F2000F078F859
:100A70000021C82000F074F80021D32000F070F8A5
:100A80000021084600F06CF80021D52000F068F83D
:100A90000021802000F064F80021D82000F060F8E8
:100AA0000021052000F05CF80021D92000F058F862
:100AB0000021F12000F054F80021DA2000F050F875
:100AC0000021122000F04CF80021DB2000F048F853
:100AD0000021302000F044F800218D2000F040F883
:100AE0000021142000F03CF80021AF2000F038F87D
:100AF00008BD0000000C014070B500242BE004F19B
:100B0000B001C8B2002100F02BF80021084600F027
:100B100027F80021102000F023F8FFF76FFE78205F
:100B200000F068FCFFF796FE402000F063FCFFF742
:100B300091FE002509E0094901EBC501085D00F0BF
:100B400059FCFFF787FE681CC5B2802DF3DBFFF769
:100B50006FFE601CC4B2082CD1DB70BD9C0000206D
:100B600070B505460C46FFF749FE782000F042FCC0
:100B7000FFF770FE1CB1402000F03CFC02E00020BA
:100B800000F038FCFFF766FE284600F033FCFFF764
:100B900061FEFFF74DFE70BD7047000029B1064AA7
:100BA000D2690243044BDA6104E0034AD26982430A
:100BB000014BDA61704700000010024029B1064A7B
:100BC00092690243044B9A6104E0034A92698243AA
:100BD000014B9A61704700000010024030B50021BF
:100BE0000022002400232D4D6D6805F00C0121B179
:100BF000042905D0082923D105E0294D056022E00C
:100C0000274D05601FE0254D6D6805F47012234DDA
:100C10006D6805F48034022505EB92421CB9214D24
:100C2000554305600BE01D4D6D6805F400351DB1A1
:100C30001C4D5543056002E0194D5543056002E027
:100C4000174D056000BF00BF144D6D6805F0F00141
:100C50000909154D6B5C0568DD4045600F4D6D68F9
:100C600005F4E061090A104D6B5C4568DD40856064
:100C70000A4D6D6805F46051C90A0B4D6B5C4568FF
:100C8000DD40C560054D6D6805F44041890B074D99
:100C90006B5CC568B5FBF3F5056130BD0010024023
:100CA00000127A0000093D004E0000205E00002086
:100CB00010B54FF480610248FFF727FB10BD00001C
:100CC000640500202DE9F04F8BB004460E46154612
:100CD0004FF0000900200A9082460990834600BF29
:100CE0000890B44202DA0A9434460A9E102D00DDC0
:100CF0001025884800688470A01B86490968C87060
:100D000084480068C078A84203DB681E81490968EE
:100D1000C87000F007FA8246BAF1500F1FD17D4823
:100D20000068007800280ADD7B48007838B97948E7
:100D300000680078401E77490968087039E07548F6
:100D400000684078002834DD7348007888BB71481B
:100D500000684078401E6F490968487029E0BAF180
:100D6000200F26D16B48006800786A490968C97865
:100D700088420ADA6848007838B96648006800781E
:100D8000401C64490968087013E0624800684178B3
:100D900060480068C078281A401E814209DA5E481F
:100DA000007830B95B4800684078401C59490968B0
:100DB00048705848006840785649096809780844DE
:100DC00000F0FF0BE000534909684860F00051490A
:100DD000096888604F48006801794E4800680078CB
:100DE000A1EBC000C0B2099086204CA30122009064
:100DF0000020099900F0E8FA062C0FD0022000909C
:100E000044480068406800F10803424800684068B0
:100E100000F108017F22002000F0B0F86CB1022040
:100E200000903C4800688068431E3A48006880682B
:100E3000411E7F22002000F0A1F8284601F016FC98
:100E4000CDE90601334909684968324A1268926857
:100E5000891A01F1080001F009FCCDE90401DDE97E
:100E6000062301F037FA074688460BF1010001F02E
:100E7000E6FB3A464346CDE9000101F047FCCDE9E7
:100E80000401244909684968C81D01F0EFFBCDE958
:100E90000201DDE9042301F043FDCDE9060101F083
:100EA000A1FB0890089801F0E1FB3A464346CDE9E2
:100EB000020101F05BF9CDE9040101F093FB079019
:100EC000042000907F227C20DDE9073100F0C9F882
:100ED000012000900F4800684068C31D0D4800685D
:100EE0007F2281687C2000F0BCF84FF000090BE005
:100EF000CB4501D1012000E00020094901F809009B
:100F000009F1010000F0FF09A945F1DD0BB0BDE8D2
:100F1000F08F00008000002070000020256300009A
:100F200070090020F0B50B460024802801D2402B28
:100F300000D3F0BD0726A6EBD306F1B203F00705F8
:100F4000C5F107070126BE40F4B24AB10A4E06EBCE
:100F5000C006765C2643084F07EBC0077E5408E0C6
:100F6000054E06EBC006765CA643034F07EBC007B1
:100F70007E5400BFDDE70000640500202DE9FF4F2F
:100F800081B081460398A0EB090004B2029904984D
:100F9000401A05B2002C01DD012000E000200121F3
:100FA000C1EB400A002D01DD012000E000200121FD
:100FB000C1EB400B0FFA89F702980FFA80F8002076
:100FC00000900026002C01DA604200E0204604B2C6
:100FD000002D01DA684200E0284605B2AC421EDD71
:100FE0000FFA89F716E00098401C009041463846F9
:100FF000009B0E9A00F0ECFC701906B2B4EB460FA1
:1010000005DC08EB0B000FFA80F8301B06B207EB8B
:101010000A0007B203985044B842E4D11EE0029897
:101020000FFA80F816E00098401C009041463846C0
:10103000009B0E9A00F0CCFC301906B2B5EB460FBF
:1010400004DC07EB0A0007B2701B06B208EB0B00CA
:101050000FFA80F8049858444045E4D105B0BDE843
:10106000F08F2DE9F84F07460C4690461E460A9D24
:101070004FF0000AD14605F0040008B9002D33D125
:10108000474502D9BA464746D046B44202D9A2469D
:101090003446564615B94FF0000901E04FF00109FA
:1010A000B44209D12346424621463846CDF8009045
:1010B000FFF764FFBDE8F88F474508D133463A464D
:1010C00021463846CDF80090FFF758FFF2E708E0D8
:1010D0002346424621463846CDF80090FFF74EFFA2
:1010E000641CB442F4D91BE033463A4621463846E4
:1010F0000095FFF743FF3346424631463846009598
:10110000FFF73CFF33464246214640460095FFF735
:1011100035FF23464246214638460095FFF72EFF0D
:1011200000BFC7E701480078704700006F0000204B
:1011300010B504462046FFF735FC10BD10B500F091
:101140001BFFFFF753FCFFF715FC10BD10B504465D
:10115000FFF7F4FF4FF480610348FFF7D6F820460D
:1011600000F032F810BD00006405002010B5FFF754
:10117000D7F9114908701148006800F02FF80F499D
:101180000968886880470C480078602812D10C48AC
:10119000007878B909480068406858B10748006885
:1011A000406806490860002006490968087005493A
:1011B0000968487010BD00006F0000206400002026
:1011C000700000208000002000B502460248026046
:1011D000FFF7C0F900BD000064000020F8B5044628
:1011E00000BF00BF2068FFF771F8001D00EB400052
:1011F0004006060EC6F18000C0F34705206813A321
:10120000012238210090A81C00F0DEF801203923CB
:10121000AA1C194600900620FFF7B0FE0120A9196C
:101220000090881E392379221946FFF7A7FE6068CF
:1012300050B10848007838B9852007A30122382129
:101240000090002000F0C0F8F8BD00005B2025737E
:10125000205D000070000020256300002DE9FE4F96
:101260000446884615461E460120029004F0FF0BF6
:101270003146684600F06AF89DF800003040029060
:10128000A5F12000C5B29DF80200401E47B233E030
:101290009DF80210019805FB010010F807904FF02F
:1012A000000A23E009F0800028B141462046029A56
:1012B000FFF738FE09E0029808B9012000E000209D
:1012C000024641462046FFF72DFE4FEA49604FEAAD
:1012D0001069641CA4EB0B00082803D15C4608F1DC
:1012E000010806E00AF1010000F0FF0ABAF1080F58
:1012F000D8DB00BF781E47B2002FC9DABDE8FE8FE9
:101300002DE9FC410646884614461F46002539460D
:10131000684600F01BF80AE0625D3B4641463046F5
:10132000FFF79CFF9DF801000644681CC5B2605D94
:101330000028F1D1BDE8FC8110B50348FFF7F8FEA5
:10134000FFF7B6FC10BD00006405002029B101299B
:1013500002D0FE2907D101E000BF00BF054B0CCB36
:10136000C0E900237047034B0CCBC0E9002300BF4A
:10137000F8E70000740000200FB47CB50446002597
:101380001048007800F0020010B17CBC5DF814FB3E
:10139000102C00DBF9E7204600F05CFB01280FD1A0
:1013A000204600F06DFB054608A8019001980090CA
:1013B000012229460620079B00F070FB00200190C7
:1013C00000BFE2E7700000200FB47CB504460D4674
:1013D00016460AA8019001980090324629462046F8
:1013E000099B00F05BFB002001907CBC5DF814FBC6
:1013F0007047000070B5044600251BE004F0800033
:1014000020B180210D48FFF787F903E080210B48C8
:10141000FFF780F9FFF734FA40210848FFF77CF91D
:10142000FFF72EFA40210548FFF774F96006040E15
:10143000681CC5B2082DE1DB70BD0000000C014046
:1014400010B500F001F810BD0CB50020019000901F
:101450003348006840F480303149086000BF3048AC
:10146000006800F4003000900198401C0190009842
:1014700018B90198B0F5A06FF1D12948006800F4BF
:10148000003010B10120009001E000200090009891
:10149000012843D12348006840F01000214908602A
:1014A0000846006820F0030008600846006840F025
:1014B000020008601A4840681949486008464068B8
:1014C00048600846406840F48060486008464068CC
:1014D00020F47C1048600846406840F4E8104860FA
:1014E0000846006840F08070086000BF0C48006843
:1014F00000F000700028F9D00948406820F003008F
:10150000074948600846406840F00200486000BF54
:101510000348406800F00C000828F9D10CBD000019
:101520000010024000200240042808D14FF0E021C2
:10153000096941F004014FF0E022116107E04FF02A
:10154000E021096921F004014FF0E02211617047A8
:101550007047000010B51348006840F001001149C1
:10156000086008464068104908400E49486008462F
:1015700000680E4908400B4908600846006820F4DE
:10158000802008600846406820F4FE0048604FF460
:101590001F008860FFF754FF4FF0006004490860A7
:1015A00010BD0000001002400000FFF8FFFFF6FE33
:1015B00008ED00E010B5FFF7B9F81D48046814B352
:1015C0001C480068A0421AD11B480078401C1A49E8
:1015D0000870084600780A2822DD1848006884420E
:1015E00007D01348016816A0FEF7F4FD0120154945
:1015F00008701248046000200F49087010E00020B5
:101600000D4908700CE00F480078012803D1002133
:101610000BA0FEF7DFFD00200849086009490870AB
:10162000044804600121084800F03EF810BD0000A5
:101630002C00002034000020380000203C00002056
:101640002564000040000020000400407FB50546EE
:101650000C4601210220FFF7A1FAADF80850ADF8C1
:1016600004400020ADF80600ADF80A0001A90D48BD
:1016700000F032F8012211460A4800F024F81D203B
:101680008DF8000003208DF801008DF80200012084
:101690008DF803006846FFF72BF90121014800F09F
:1016A00006F87FBD00040040CA430282704721B1A2
:1016B000028842F00102028004E002884FF6FE73C5
:1016C0001A40028070471AB183890B43838102E07C
:1016D00083898B4383817047002202881D4B984287
:1016E0000ED01D4B98420BD0B0F1804F08D01B4B51
:1016F000984205D01A4B984202D01A4B984204D116
:101700004FF68F731A404B881A43174B984207D0F5
:10171000164B984204D04FF6FF431A40CB881A4329
:1017200002808B8883850B8803850A4B98420BD0F7
:10173000094B984208D00E4B984205D00D4B984269
:1017400002D00D4B984201D10B7A0386012383828C
:1017500070470000002C01400034014000040040AC
:1017600000080040000C0040001000400014004041
:1017700000400140004401400048014010B540F2E3
:1017800025511D4800F04AF810B31B4800F002F93B
:10179000C4B21A48008800F40040C8B9174800884D
:1017A00000F4804060B10A2C03D000201349088067
:1017B00020E01248008840F400401049088019E0F9
:1017C0000D2C06D10D48008840F480400B4908805C
:1017D00010E00A480088C0F30D0009490C5407487E
:1017E0000088401C0549088008460088C72801DD9C
:1017F0000020088010BD0000003801404800002093
:101800009C04002021B1828942F40052828104E0CC
:1018100082894DF6FF731A408281704770B5024687
:10182000002400230025002040F66A16B14200D1B2
:1018300000BFC1F3421501F01F03012606FA03F3AE
:10184000012D02D19689334006E0022D02D1168A7D
:10185000334001E0968A33400C12012606FA04F464
:101860001688344013B10CB1012000E0002070BD97
:10187000F0B50346002400260025002040F66A1734
:10188000B94200D100BF1846C1F3421401F01F064F
:10189000012707FA06F5012C01D10C3004E0022CD7
:1018A00001D1103000E014301AB107682F430760EF
:1018B00002E00768AF430760F0BD00002DE9F04784
:1018C00086B005460E460024A24600BFA14600276A
:1018D000B08900B100BF2F462C8A4CF6FF7004403F
:1018E000F08804432C82AC894EF6F3100440B08893
:1018F00031890843718908430443AC81AC8A4FF6AF
:10190000FF400440B0890443AC8201A8FFF766F9A8
:101910001F48874202D1DDF810A001E0DDF80CA0DD
:10192000A88900F4004040B10AEBCA0000EB0A109D
:1019300031684900B0FBF1F807E00AEBCA0000EBA0
:101940000A1031688900B0FBF1F86420B8FBF0F0B0
:1019500004012009642101FB1089A88900F40040DA
:1019600040B1322000EBC900B0FBF1F000F00700FD
:10197000044308E0322000EB09106421B0FBF1F0D1
:1019800000F00F0004432C8106B0BDE8F087000092
:101990000038014001468888C0F30800704700BF46
:1019A000FEE7000010B5042200210620FFF78AF9A7
:1019B000034804A102680120FFF7DEFC10BD00000F
:1019C0002C0000207765696768743A2564206700F9
:1019D0002DE9F04106460F4615461C4605F003006A
:1019E00030B1012829D0022808D0032826D114E0DC
:1019F000002239463046FFF795FA25E004F0010051
:101A000028B1012239463046FFF78CFA04E0002263
:101A100039463046FFF786FA16E004F00300022844
:101A200005D3012239463046FFF77CFA04E0002254
:101A300039463046FFF776FA06E000BF0122394604
:101A40003046FFF76FFA00BF00BFBDE8F081704776
:101A5000704700000146094800684078081A0AD417
:101A6000064800684078081A044A1268D278904202
:101A700001DC012070470020FCE70000800000200E
:101A80000146054800688078401A034A1268527877
:101A90001044C00070470000800000202DE9FF4F77
:101AA0009FB01D461F9800F0FF0800201C900320E7
:101AB0001B9001200C90219908A8FFF747FC0020FB
:101AC0001290109049E215F8011B4CB204B949E29A
:101AD000252C0BD0E2B24046DDE92013FFF7BEFB18
:101AE0009DF82100404400F0FF0831E200208146CB
:101AF000834600BF199015F8011B4CB2302C05D15C
:101B00004FF0010915F8011B4CB20EE02D2C05D148
:101B10004FF0020915F8011B4CB206E02E2C04D13F
:101B200001201C9015F8011B4CB218E01C980128EC
:101B30000BD1199800EB800004EB40003038C0B2A4
:101B4000199015F8011B4CB209E00BEB8B0004EB6C
:101B50004000303800F0FF0B15F8011B4CB2302C60
:101B600001DB392CE2DD1C98012806D119980728E1
:101B700001DD072000E019981B906C2C01D04C2C43
:101B800004D149F0040915F8011B4CB204B9E9E18C
:101B90002746612C04DB7A2C02DCA7F1200047B237
:101BA0004F2F79D008DC422F77D0432F64D0442FB9
:101BB00074D0462F73D174E0532F04D0552F6FD0BB
:101BC000582FF7D121E12C98006813902C98001D14
:101BD0002C904FF0000A03E00AF1010000F0FF0A28
:101BE000139810F80A000028F6D1CDF83CA0119007
:101BF00009F00200A8B90EE020224046DDE92013DA
:101C0000FFF72CFB1198401C00B211909DF82100A9
:101C1000404400F0FF085046411C01F0FF0A5845BF
:101C2000EADB4046DDE92013139AFFF769FB9DF8D4
:101C300021100F9801FB008000F0FF080F99119808
:101C4000084400B211900EE020224046DDE9201346
:101C5000FFF704FB1198401C00B211909DF8210081
:101C6000404400F0FF085046411C01F0FF0A58456F
:101C7000EADB119810906BE12C9810F8041BCAB2A3
:101C80002C904046DDE92013FFF7E8FA9DF821008B
:101C9000404400F0FF085BE1B0E0ACE0B1E0B7E049
:101CA000B0E02C98C01D20F0070001462C90006881
:101CB00049682C9A08322C92CDE90A010022134679
:101CC000DDE90A0100F0E6FC0BD21B9840F00800A9
:101CD0001B900022A54BDDE90A0100F017FDCDE9BC
:101CE0000A01DDE90A0100F04DFC00B20E9001206E
:101CF0000C901B9800F007001A9009E00C9800EB7C
:101D00008000400000B20C901A98401EC0B21A9099
:101D10001A98401E0028F1D50E9800F090FCCDE9ED
:101D20000001DDE90A2300F0EFFDCDE904010C9884
:101D300000F085FCCDE90201DDE9042300F0E6FCBA
:101D4000CDE9060100F01EFC00B20D9000261B98A4
:101D500000F007001A901CE00D98A0B10A210D9820
:101D600090FBF1F201FB120047B20D9890FBF1F0ED
:101D700000B20D9007F1300042B23046711CCEB275
:101D800014A90A5405E030223046711CCEB214A9C1
:101D90000A541A98411EC9B21A910028DCD12E2289
:101DA0003046711CCEB214A90A5400BF0A210E9805
:101DB00090FBF1F201FB120047B20E9890FBF1F09C
:101DC00000B20E9007F1300042B23046711CCEB224
:101DD00014A90A540E9808B1102EE7D31B9800F0EE
:101DE000080028B12D223146701CC6B214A84254F6
:101DF00000201C906AE002201D9017E008201D9032
:101E000014E000BF0A201D9010E010201D900DE08E
:101E1000E2B24046DDE92013FFF720FA9DF82100E9
:101E2000404400F0FF080120109091E000BF09F04D
:101E3000040028B12C9800682C99091D2C910CE005
:101E4000442F05D12C9800682C99091D2C9104E091
:101E50002C9800682C99091D2C911890442F08D1BA
:101E6000189800F0004020B118984042189049F0AE
:101E70000809002600BF1D991898B0FBF1F201FB7C
:101E8000120047B21D991898B0FBF1F01890092F75
:101E900006DD782C01D1272000E00720384447B226
:101EA00007F1300042B23046711CCEB214A90A5478
:101EB000189808B1102EDED309F0080028B12D22A1
:101EC0003046711CCEB214A90A5400BFB24609F0C4
:101ED000010008B1302000E0202007460AE0FAB2F5
:101EE0004046DDE92013FFF7B9F99DF82100404491
:101EF00000F0FF0809F0020028B95046411C01F02B
:101F0000FF0A5845EBDB00BF701EC0B2064614A99D
:101F10000A5C4046DDE92013FFF7A0F99DF8210097
:101F2000404400F0FF08002EEED10AE0FAB240462D
:101F3000DDE92013FFF792F99DF82100404400F0FD
:101F4000FF085046411C01F0FF0A5845EEDB00BF78
:101F500010991298084400B212901098401C002862
:101F60007FF4B1AD00BF23B0BDE8F08F0000F0BF3B
:101F7000014600BF7047000010B56FF00400FFF786
:101F8000D3FA0A4800680A49B0FBF1F00949087021
:101F90000846007800EB4001C1EBC0104FF6FF711E
:101FA00001EAC0000449088010BD0000880000203C
:101FB00000127A004A0000204C0000200146114A1D
:101FC00012884A434FF0E0235A6100229A611A4670
:101FD000126942F001021A6100BF4FF0E02210695D
:101FE00000F001021AB100F48032002AF5D04FF05F
:101FF000E022126922F001024FF0E0231A61002270
:102000009A6170474C0000200146114A12784A43F9
:102010004FF0E0235A6100229A611A46126942F099
:1020200001021A6100BF4FF0E022106900F00102C6
:102030001AB100F48032002AF5D04FF0E022126984
:1020400022F001024FF0E0231A6100229A617047EA
:102050004A00002000BF054A128802F04002002A10
:10206000F9D0C2B2014B1B1D1A80704700380140E5
:10207000FFF782FFFEF72CFC4FF4A060FEF770FC28
:1020800000F01CF8FEF704FCFFF756F9FEF746FBDC
:102090003220FFF793FFFEF741FB4FF4E13000F0F1
:1020A00015F841F61F4140F25D10FFF7CFFA03E04B
:1020B000FFF75CF8FFF740F9FAE7000010B50248B7
:1020C000FFF744F810BD00000000002010B586B0F6
:1020D0000446012144F20400FEF770FD4FF4007045
:1020E000ADF8140003208DF8160018208DF81700A5
:1020F00005A91C48FEF73AFA4FF48060ADF81400C9
:1021000004208DF8170005A91648FEF72FFA2520A0
:102110008DF8000003208DF801008DF802000120E9
:102120008DF803006846FEF7E3FB01940020ADF84C
:102130000800ADF80A00ADF80C00ADF810000C2056
:10214000ADF80E0001A90848FFF7B8FB012240F2E4
:1021500025510548FFF78CFB01210348FFF752FB8F
:1021600006B010BD000801400038014010B591EAEA
:10217000030F48BF83F0004300F1DA83841A71EB48
:10218000030C05D2121943EB0C03001B61EB0C018D
:10219000DFF824E14FEA1154A4EB135C1EEA430F6D
:1021A00018BF9EEA445F73D023EA0E03DCF1200ED1
:1021B00021EA045143F4801332D322FA0CFE10EBCF
:1021C0000E0023FA0CFE41EB0E01CCF1200E03FAB7
:1021D0000EFE10EB0E0051F10001B1F5801FCCF1A5
:1021E000200E32D201EB045112FA0EF2BDE810407B
:1021F00058BF7047401C38BF5FEA420218BF7047A3
:10220000002814BF20F0010041F100014FEA410312
:1022100013F5001F38BF7047A1F1C04100F06EBB3D
:10222000012A43EB0302ACF1200CDCF11F0E32BF9C
:102230004FF0000E23FA0CF310EB030041EB0451B6
:10224000B4EB115FD0D0A1EB045101F58011490826
:102250005FEA300001EB04510ED350F1000038BFAB
:1022600012FA0EFE08D1BDE81040C9E7401C38BF85
:102270005FEA4202CAD1C3E7BDE810404FEA41031A
:1022800013F5001F38BF7047A1F1C04100F036BB05
:102290009EEA445F08D011EA5E0FBDE8104004BF1B
:1022A00001F0004100207047BDE8104070B500F01B
:1022B000D7FA00BF64FBBE3E0000E0FF491058BFE4
:1022C000C1F140415B1058BFC3F140438B42EFF373
:1022D000008070472DE9C04130B4DFF8A0C23CEA6D
:1022E000111418BF3CEA131400F0EC8081EA0305D6
:1022F0001CEA111444EAD57418BF1CEA131500F047
:10230000C780A4EB05044FF0004545EAC12145EA2A
:10231000C32341EA505143EA525304F17F74994276
:1023200004F500344FEAC0204FEAC22208BF9042B1
:1023300000F09C804FEA13650FF24016765D4FEA7D
:10234000134506FB05F7C7F1807706FB07F74FEA51
:10235000D737A7FB03687642C8F58038A7FB06CEBF
:1023600038BFA8F1010807FB08E64FF0000EA6FBF6
:10237000028CE6FB03CEDCF1000CCEF1004E38BF40
:10238000AEF1010EA6FB0C584FF000074FF0000510
:10239000E6FB0E87A1FB08C6A0FB07CE16EB0E06D8
:1023A00045F10005E1FB076515F1E04E7EBFA4F5A0
:1023B00080345FEA46066D4116F1800745F100055D
:1023C0004FEA17274FEA066647EA0567A6F1DE4699
:1023D000B6F1805F4FEA15251FD9384624F0010C6D
:1023E00005EBC471BCF1FE6F01EB0C1102D8F0BC1F
:1023F000BDE8008124425CBF01F5801E9EEAC47FD7
:1024000002D4F0BCBDE80081244238D4F0BCA1F174
:10241000C041BDE8004100F071BA4FEAD22242EA61
:1024200043524FEAD323A7FB02864FEAD02040EA6B
:10243000415007FB03661EEA0E0F4FEAD12105FB50
:10244000026658BFA6EB0056B6EB00564FEA520E96
:102450004EEAC37E18EB0E0E56EB530EBDD518EBAD
:1024600002085E417F1C55F10005B6E74FF4801568
:102470004FF000074FF000064FF00008ADE7F0BC4A
:102480004FF0000001F1C04101F00041BDE80081C2
:1024900011EA0C1F0CEA131500D00CE013EA0C1F14
:1024A00000F025804FF00000F0BC81EA030101F04C
:1024B0000041BDE80081F0BCBDE8004181EA0301B4
:1024C00000F01CBAF0BCBDE8004170B500F0C8F9DE
:1024D000097EFC3E00F007B881EA03014FF00000DE
:1024E00001F00041704781EA030100F007BAF0BC37
:1024F000BDE800414FF0000021497047FFFDFBF9A6
:10250000F7F5F4F2F0EEEDEBE9E8E6E4E3E1E0DE26
:10251000DDDBDAD8D7D5D4D3D1D0CFCDCCCBCAC898
:10252000C7C6C5C4C2C1C0BFBEBDBCBBBAB9B8B7BF
:10253000B6B5B4B3B2B1B0AFAEADACABAAA9A8A8B2
:10254000A7A6A5A4A3A3A2A1A09F9F9E9D9C9C9B80
:102550009A9999989797969595949393929191902B
:102560008F8F8E8E8D8C8C8B8B8A898988888787BC
:102570008685858484838382828181800000FF0731
:102580000000F87F4FEA41034FEA5353A3F58063FD
:10259000D3F11E03C8BFD3F1210C0CDD4FF0004274
:1025A00042EAC12242EA505232FA03FC8CEAE17C50
:1025B000ACEBE1707047102BC4BF0020704703F5EF
:1025C000787CBCF1FF3F04D06FF0004282EA21002A
:1025D000704770B500F044F949922480002070479C
:1025E000F2E700004FEA1153A3F58063D3F11E0315
:1025F000A8BFD3F1200C08DB4FF0004242EAC12211
:1026000052EA505232FA03F0704709420BD4102BB1
:10261000C4BF0020704703F5787CBCF1FF3F05D0B4
:102620004FF0FF3070474FF00000704770B500F07A
:1026300017F900BF4992248000207047F0E710F09E
:10264000004248BF4042B0FA80F310FA03F10AD0CA
:10265000C3F11D0303F580634FEA415002EB0352BF
:1026600002EBD12170474FF000007047B0FA80F3C1
:1026700010FA03F10AD0C3F11D0303F580634FEA9A
:1026800041504FEA035202EBD12170474FF0000056
:102690007047000051EA030C17D41CF5801F58BF87
:1026A000BCF5801F00F10680994218BF704708BF33
:1026B0009042704707D711F5801F58BF13F5801F50
:1026C00019D499427047894270471CF5801F08D57C
:1026D000BCF5801FF7D58B4218BF704708BF8242F8
:1026E00070474FF4001C1CEB410F38BF1CEB430F2D
:1026F00001D28B42704770B500F0B2F892244900C5
:102700004FF000514FF08053FFF7D8BDDFF848C1BC
:1027100070B51CEA111E1EBF1CEA13159EEA0C0FB1
:1027200095EA0C0F00F06F8081EA030423EA4C1352
:102730004EEAD47E21EA4C1141F4801143F4801317
:10274000AE44A1FB024CA0FB0365AEF17F7E3619BF
:1027500055EB0C05A1FB034C4CF10003A0FB021C44
:1027600016EB0C06654153F10003094218BF46F011
:10277000010613F4007F0BD14FEA03314FEA053015
:10278000340341EA155140EA16506FF003020AE0A3
:102790004FEAC3214FEAC520F40241EA555140EA0D
:1027A00056506FF0020202EB2E4201EB025585EA11
:1027B000CE710AD05FEA440C18BF24F0004450F1F7
:1027C000000041F1000120EAD47040F2FE7C624535
:1027D00000D270BDA84214BF4FF080444FF0404477
:1027E000002E08BF0024BEF1806FA8BFA1F1C04138
:1027F000BDE8704080F282804FF0000001F1C041DE
:1028000001F0004170479EEA0C0F0CEA131518BF47
:1028100095EA0C0F06D04FF0000081EA030E0EF08F
:10282000004170BD00F01CF88900013E00F007B8BF
:1028300000F009B84FEA430C5FEA5C5C08D081EA1B
:10284000030100F05BB84FEA410C5FEA5C5CF6D133
:102850004FF00000014970470000FF070000F87FBB
:102860000EF1020E2EF0030E5EF8046B364205D414
:10287000012A43EB030515F5001F12D8012841EB8F
:10288000010C1CF5001F0CD80ED14FEAD17C15F5B8
:10289000001F0CEB4C0C0CF1020C08BF4CEBD37C72
:1028A00004E04FF0080C01E04FEAD37C0CEB4C0540
:1028B00026FA05F606F00706B6F1040C06D20EEB72
:1028C000860CBDE870404CF0010C6047DFE80CF06E
:1028D000090B02024FF000414FF00000A1F500216A
:1028E00070BD19461046012851EB010418BFD4F5FC
:1028F000001484BF002001F0004170BD0808A0F55D
:1029000000114FEA3101704791EA030F10B581F0D1
:1029100000413FF533AC83F0004300F009B80000FC
:1029200010B591EA030F48BF83F000433FF526AC92
:10293000841A71EB030C07D212198CF0004C43EB94
:102940000C03001B61EB0C01DFF8A4E14FEA11540A
:10295000A4EB135C1EEA430F18BF9EEA445F00F02D
:10296000B08023EA6E03524221EA0451C3EB6E03A6
:1029700038BF5B1EDCF1200E25D322FA0CFE10EBD3
:102980000E0043FA0CFE41EB0E01CCF1200E03FACF
:102990000EFE10EB0E0051F10001CCF1200E29D4F7
:1029A00012FA0EF201EB0451BDE8104058BF704717
:1029B000401C1CBFB2F1004F704700280CBF491CDF
:1029C00020F00100704712EB020E43EB030218BF28
:1029D0004FF0010E4EEA4202ACF1200CDCF11E0E6B
:1029E00054D943FA0CFE10EB0E0051F1FF31CCF13B
:1029F0001E0ED5D50EF1010E12FA0EFE404141EB2E
:102A0000010101EB445C5FEA5C5C10D910EBDE7005
:102A100001EB045138BFBEF1004FBDE8104018BFB4
:102A2000704700280CBF491C20F00100704730D2CD
:102A30004FEAD42C11F5001124F400641BD0B1FA34
:102A400081F20B3AA41AA41ED2F12003914030FA6D
:102A500003F31943904001EBCC71002C01EB0451BE
:102A6000BDE81040A8BF704701F1C0414FF0000021
:102A700001F000417047B0FA80F310FA03F100D181
:102A800010BDE41A173C4805C90AE4E701EB0451FC
:102A900010BD491001EB0451BDE810404FEA300071
:102AA00002E04FF0000170474A0008BF0042F8D032
:102AB000B2F5001F28BF704701F000414FF0000041
:102AC00070479EEA445F07D011EA5E0FBDE81040F0
:102AD00004BF002100207047BDE8104070B5FFF72B
:102AE000BFFE00BF40DFF63E83F000411046704756
:102AF0000000E0FF4FF47F0C1CEAD0121EBF1CEA5E
:102B0000D11392EA0C0F93EA0C0F00F0858090EA43
:102B1000010F48BF42F4807240F4000C41F4000001
:102B20002CF07F4120F07F4000B58142A2EB0302F0
:102B30000FF2081CACEB504EC0F100009EF800E014
:102B40004FEA4E0E00FB0EFC38BF49004FEA2C1C2A
:102B500002F5FA020CFB0EF34FEACE1E4FEA112CDF
:102B60004FEAC1210EEB635E42EB22420EFB0CFCEE
:102B70004FEA1C5300FB03114FEA112C4FEA0131BD
:102B80000EFB0CFC4FEADC4C00FB0C11C14228BFD1
:102B900009184CEB03335DF804EB10EB410143EBF8
:102BA000C250B2F57C0F38BF704729D512F0F00F34
:102BB0001CBF00F1C04000F00040704700818283DC
:102BC0008485868788898B8C8D8E8F91929395963C
:102BD00097999A9C9D9FA0A2A3A5A7A8AAACAEB0C6
:102BE000B2B3B5B7B9BCBEC0C2C5C7C9CCCED1D4CB
:102BF000D7D9DCDFE2E6E9ECF0F3F7FAFE000000FB
:102C00004FEA400C0CF1807CBCF17E4F28BF70472E
:102C1000B0F1C04000F0AAB890EA010F0CEAD1135D
:102C200048BF42F48072624538BF634507D213F44F
:102C30007F0F16D080EA010000F00040704710B509
:102C400000F04EF8097EFC3E00F005B880EA010075
:102C500000F00040704780EA010000F0004000F002
:102C600085B812F47F0F04BF0248704780EA010064
:102C700000F07CB80000C07F41000B0ED3F19E0233
:102C800008D950F400034FEA032323FA02F048BFA7
:102C90004042704710B500F023F800BF49922480ED
:102CA000002070476FF0004282EA20007047000069
:102CB00010F0004148BF4042B0FA80F310FA03F22E
:102CC000C3F19D030BD051EAC35101EB122053060F
:102CD00038BF704700F1010008BF20F001007047C5
:102CE0000EF1020E2EF0030E5EF8044B244204D4C3
:102CF0004FEA4102B2F17F4F11D84FEA4003B3F1DE
:102D00007F4F0CD80ED14FEAD07CB2F17F4F0CEB45
:102D10004C0C0CF1020C08BF4CEBD17C04E04FF0E2
:102D2000080C01E04FEAD17C0CEB4C0324FA03F4CD
:102D300004F00704B4F1040C06D20EEB840CBDE8D9
:102D400010404CF0010C6047DFE80CF0070802026D
:102D50004FF00040A0F5800010BD0846420018BFAB
:102D6000D2F1807288BF00F0004010BDFF2141EA1F
:102D7000D050C005704700000000000000008080B7
:102D8000808080008000A0A0A000000000005050C3
:102D9000F850F85050002078A07028F02000C0C8EB
:102DA0001020409818006090A040A8906800C04093
:102DB0008000000000002040808080402000804093
:102DC000202020408000005020F8205000000020EB
:102DD00020F8202000000000000000C0408000001B
:102DE00000F8000000000000000000C0C000000863
:102DF000102040800000708898A8C888700020606B
:102E0000202020207000708808304080F8007088F2
:102E100008300888700010305090F8101000F880CA
:102E2000F00808887000304080F088887000F8084A
:102E3000102040404000708888708888700070883A
:102E400088780810600000C0C000C0C0000000000A
:102E5000C0C000C040801020408040201000000012
:102E6000F800F800000080402010204080007088AA
:102E700008102000200070880868A8A870007088DA
:102E800088F888888800F08888F08888F000708842
:102E9000808080887000E09088888890E000F880CA
:102EA00080F08080F800F88080F08080800070885A
:102EB000808098887800888888F888888800E04032
:102EC00040404040E00038101010109060008890A2
:102ED000A0C0A0908800808080808080F80088D882
:102EE000A8A8888888008888C8A8988888007088DA
:102EF000888888887000F08888F0808080007088DA
:102F00008888A8906800F08888F0A0908800708871
:102F1000807008887000F8202020202020008888F9
:102F200088888888700088888888885020008888E9
:102F300088A8A8A8500088885020508888008888D1
:102F4000502020202000F80810204080F800E08069
:102F500080808080E0000080402010080000E02099
:102F600020202020E0002050880000000000000009
:102F700000000000F8008040200000000000000079
:102F80007008788878008080B0C88888F0000000D9
:102F90006090809060000808689888887800000039
:102FA0007088F8807000205040E0404040000000F1
:102FB0007888887808708080B0C888888800400049
:102FC00040404040400020006020202020C0808001
:102FD00090A0C0A09000C04040404040E0000000F1
:102FE000D0A8A88888000000B0D090909000000081
:102FF0006090909060000000E09090E08080000081
:103000007090907010100000506040404000000030
:1030100070806010E0004040E040404060000000F0
:1030200090909090700000008888885020000000E8
:103030008888A8A850000000885020508800000010
:103040009090907010600000F8102040F800204030
:103050004080404020002020202020202000804070
:103060004020404080006890000000000000FCFC10
:10307000FCFCFCFCFC00002070A8202000000020CC
:1030800020A87020000000102078201000000020F0
:103090001078102000000050487C0810000000202C
:1030A00040F84828000000E0F0F8F0E000000010D0
:1030B000181C181000000080402040803C000000D8
:1030C00000000000A80000004D4F44453100000002
:1030D0004D4F4445320000004669727374205061C0
:1030E0006765000004310008000000209C0000001B
:1030F00028010008A03100089C000020440F0000B7
:1031000044010008D830000800000000A51900089C
:10311000C8300008000000204F1A0008D030000816
:103120000C000020511A0008000000000000000000
:10313000000000000000000000000000000000008F
:10314000000000000000000000000000000000007F
:10315000000000000000010203040102030406074E
:10316000080902040608000000000000000000003A
:10317000000000000000000001060800762D000895
:1031800000000000640900200200000000A24A04C0
:103190000000000000000000010203040607080907
:04000005080001915D
:00000001FF
